:020000040800F2
:1000000000280020A9130008591100085F110008FA
:10001000651100086B110008711100080000000054
:100020000000000000000000000000007711000840
:1000300083110008000000008F1100089B110008C8
:10004000F1130008F1130008F1130008F113000880
:10005000F1130008F1130008F1130008F113000870
:10006000F1130008F1130008F1130008F113000860
:10007000F1130008F1130008F1130008F113000850
:10008000F1130008F1130008F1130008F113000840
:10009000F1130008F1130008F1130008F113000830
:1000A000F1130008F1130008F1130008F113000820
:1000B000A9110008F113000800000000F113000866
:1000C000F11300080000000000000000F113000818
:1000D00000000000F1130008F11300080000000008
:1000E000F1130008F1130008F113000800000000EC
:1000F0000000000000000000000000000000000000
:0C01000000000000000000005FF808F1A3
:10010C0010B5054C237833B9044B13B10448AFF345
:10011C0000800123237010BD94000020000000001B
:10012C00482A000808B5034B1BB103490348AFF339
:10013C00008008BD0000000098000020482A00083C
:10014C0090B583B000AF0446084611461A462346C4
:10015C00FB710346BB710B467B7113463B71FB79FC
:10016C001A460121154801F040FCBB791A460221C0
:10017C00124801F03AFC7B791A4604210F4801F031
:10018C0034FC3B791A4608210C4801F02EFC3B7ECE
:10019C001A461021094801F028FC3B7F1A46202101
:1001AC00064801F022FC97F820301A4640210348FB
:1001BC0001F01BFC00BF0C37BD4690BD0008014090
:1001CC0080B586B004AF78607B68092B00F29A800A
:1001DC0001A252F823F000BF0D020008270200080C
:1001EC00410200085B020008750200088F0200083B
:1001FC00A9020008C3020008DD020008F70200088B
:10020C000123029300230193002300930023002277
:10021C0000210020FFF794FF81E0012302930123CA
:10022C000193012300930123002200210120FFF7F9
:10023C0087FF74E0002302930123019300230093B2
:10024C000023012200210020FFF77AFF67E0002342
:10025C000293012301930123009300230022002128
:10026C000020FFF76DFF5AE0002302930023019357
:10027C00012300930123002200210120FFF760FFDE
:10028C004DE00023029300230193012300930023EC
:10029C00002201210020FFF753FF40E000230293CE
:1002AC00002301930023009300230022012100204E
:1002BC00FFF746FF33E0012302930123019301234F
:1002CC0000930123002200210020FFF739FF26E0D4
:1002DC0000230293002301930023009300230022A8
:1002EC0000210020FFF72CFF19E0002302930023CC
:1002FC000193012300930023002200210020FFF72B
:10030C001FFF0CE0002302930023019301230093B1
:10031C000023002200210020FFF712FF00BF00BFC6
:10032C000837BD4680BD00BF80B500AF002201215B
:10033C000E4801F05AFB002202210C4801F055FB3B
:10034C0000220421094801F050FB00220821074833
:10035C0001F04BFB00222021044801F046FB002257
:10036C001021024801F041FB00BF80BD000C014090
:10037C0080B582B000AF78607B68042B1BD07B68A3
:10038C00042B21DC7B68022B03D07B68032B09D068
:10039C001AE001210F4801F040FB08210D4801F043
:1003AC003CFB12E004210B4801F037FB20210948EB
:1003BC0001F033FB09E00221064801F02EFB10216D
:1003CC00044801F02AFB00E000BF00BF0837BD461F
:1003DC0080BD00BF000C014080B582B000AF00238F
:1003EC007B60ABE05A4A7B6852F8232059497B6802
:1003FC0041F82320584A7B6852F8232054497B68E3
:10040C0041F82320554A7B6852F8232054497B68D5
:10041C0031F813301946104601F0D0FA034619464C
:10042C004D4A7B6842F823104A4A7B6852F82320D5
:10043C0047497B6851F823309A4277D1444A7B680C
:10044C0052F8232044497B6851F823309A426DD1ED
:10045C00444A7B6852F823203E497B6851F823308C
:10046C009A4229D03F4A7B6852F82330002B02D0A5
:10047C00012B11D05FE03B4A7B68012142F823102D
:10048C00394A7B6852F82330002B51DD374A7B68A0
:10049C00002142F823104BE0324A7B68002142F8DD
:1004AC002310334A7B68642142F823102E4A7B6860
:1004BC00142142F823103EE02A4A7B6852F823307C
:1004CC00002B01D0012B36E0294A7B6852F82330EF
:1004DC00002B1BDD264A7B6852F823305A1E244918
:1004EC007B6841F82320224A7B6852F82330002B8A
:1004FC000CDC1E4A7B68002142F823107B68012B20
:10050C0004D11B4A7B680A2142F82310164A7B68E7
:10051C0052F82330002B0DDD134A7B6852F8233040
:10052C005A1E11497B6841F8232003E000BF02E00A
:10053C0000BF00E000BF7B6801337B607B68022B4F
:10054C007FF750AF00BF00BF0837BD4680BD00BF6E
:10055C002C0000202000002038000020000000208B
:10056C000C000020140000205C000020440000203F
:10057C005000002080B500AF00F036FF00F0D8F935
:10058C0000F05EFA00F010FA9A4801F097FE012094
:10059C0000F036FD4FF0FF3000F046FD4FF0FF301D
:1005AC0000F056FD944B1B68012B40F061810A2032
:1005BC0000F026FDFFF710FF904B1B68002B40F05E
:1005CC00B6808E4B01221A608D4B1B68042B00F2F7
:1005DC00B08001A252F823F0F90500083D0600088E
:1005EC007D060008BD060008FD060008844B0122AC
:1005FC001A60844B00221A60834B1B68834A136079
:10060C00834B1B68834A1360834B1B68834A1360BC
:10061C000321012000F0D2FD00F088FA4FF47A702B
:10062C0000F002FD00F01AFE322000F025FD81E002
:10063C00734B02221A60734B01221A6003210220B1
:10064C0000F0BCFDFFF770FE0220FFF791FE4FF4A7
:10065C00FA7000F0FDFC714B1B680121184600F08C
:10066C00ADFD6E4B1B680221184600F0A7FD61E042
:10067C00634B03221A60634B01221A60FFF754FE8E
:10068C000320FFF775FE4FF4FA7000F0E1FC614BAC
:10069C001B680121184600F091FD5E4B1B6802217E
:1006AC00184600F08BFD0321032000F087FD41E08C
:1006BC00534B04221A60534B01221A60FFF734FE8D
:1006CC000420FFF755FE4FF4FA7000F0C1FC4F4BBD
:1006DC001B680121184600F071FD4C4B1B68022170
:1006EC00184600F06BFD0321042000F067FD21E0AB
:1006FC00434B01221A60454B1B68434A1360474B1E
:10070C001B68454A1360434B1B68414A1360FFF753
:10071C000BFE00F00BFA4FF47A7000F085FC394BAD
:10072C0000221A600321012000F048FD02E000BF06
:10073C0000E000BF314B5B68002B58D12F4B0122DE
:10074C005A602F4B1B68042B38D0042B68DC022B0F
:10075C0002D0032B19D063E02F4B1B6801332E4AB8
:10076C0013602D4B1B68632B02DD2B4B00221A6090
:10077C00294B1B680121184600F020FD264B1B68F5
:10078C000221184600F01AFD4BE0214B1B68013387
:10079C001F4A13601E4B1B68632B02DD1C4B00228F
:1007AC001A601B4B1B680121184600F007FD184B03
:1007BC001B680221184600F001FD32E0124B1B6849
:1007CC000133114A1360104B1B68632B02DD0E4B77
:1007DC0000221A600C4B1B680121184600F0EEFC3D
:1007EC00094B1B680221184600F0E8FC19E000BF19
:1007FC0017E000BFD0000020400100204400002082
:10080C00B0000020B40000206C000020C4000020C8
:10081C0070000020C800002068000020C0000020EC
:10082C0000BF354B9B68002B22D1334B01229A60C1
:10083C00324B1B68324A1360324B1B68324A1360CE
:10084C00324B1B68324A1360324B00221A60324B17
:10085C0000221A60314B1B68012B03D02F4B1B68F5
:10086C00002B05D100F062F94FF47A7000F0DCFB3C
:10087C002B4B1B68012B09D14FF47A7000F0D4FB81
:10088C00284B1B68002B01D100F050F9264B1B683C
:10089C00012B23D14FF4FA7000F0DAFB214B1B68CB
:1008AC00012B1BD11D4B1B68013B032B18D801A23C
:1008BC0052F823F0ED080008D1080008D908000808
:1008CC00E10800080220FFF753FD0AE00320FFF7C0
:1008DC004FFD06E00420FFF74BFD02E000BF00E0F7
:1008EC0000BF124B1B68012B7FF45CAE00F0B6FC12
:1008FC00322000F0C1FB55E6440000206C000020C3
:10090C00C400002068000020C000002070000020FF
:10091C00C8000020B8000020BC000020B00000205F
:10092C0038010020B4000020480100203C010020C8
:10093C0080B590B000AF07F11803282200211846AB
:10094C0002F074F83B1D00221A605A609A60DA605B
:10095C001A610223BB610123BB621023FB620023DB
:10096C007B6307F11803184601F070F80346002B5F
:10097C0001D000F0D5F80F237B600023BB6000236F
:10098C00FB6000233B6100237B613B1D002118466B
:10099C0001F0DCFA0346002B01D000F0C1F800BFD7
:1009AC004037BD4680BD000080B586B000AF07F172
:1009BC00080300221A605A609A60DA603B460022F3
:1009CC001A605A601D4B4FF080421A601B4B40F26C
:1009DC001F325A60194B00229A60184B0922DA60B8
:1009EC00164B00221A61154B00229A61134801F034
:1009FC0015FC0346002B01D000F092F84FF4805305
:100A0C00BB6007F1080319460C4801F0ABFD034627
:100A1C00002B01D000F084F800233B6000237B60A6
:100A2C003B461946054801F073FF0346002B01D0E5
:100A3C0000F076F800BF1837BD4680BDD00000200E
:100A4C0080B586B000AF07F1080300221A605A6027
:100A5C009A60DA602A4B9B69294A43F0040393613C
:100A6C00274B9B6903F004037B607B68244B9B69D9
:100A7C00234A43F008039361214B9B6903F008035D
:100A8C003B603B6800227F211E4800F0AEFF012234
:100A9C003F211D4800F0A9FF00224FF4F8611A48CD
:100AAC0000F0A3FF7F23BB600123FB6000233B61AD
:100ABC0003237B6107F108031946124800F004FE7A
:100ACC0040F2FF73BB600123FB6000233B610323F7
:100ADC007B6107F1080319460B4800F0F5FD4FF454
:100AEC00E053BB600023FB6001233B6107F108036B
:100AFC001946044800F0E8FD00BF1837BD4680BD1C
:100B0C000010024000080140000C014080B582B08A
:100B1C0000AF786000F01EFA00BF0837BD4680BDFC
:100B2C0080B400AF72B600BFFEE7000080B500AF26
:100B3C00B14B1B68032B00F2E98001A252F823F0A1
:100B4C005D0B0008970B0008190C0008990C0008A5
:100B5C0001220121A94800F048FF00220421A748E6
:100B6C0000F043FF00220221A44800F03EFFA44BFA
:100B7C001B68A44A1360A34B1B680121184600F0A4
:100B8C001DFB9D4B01221A60C7E09E4B1B68002B7E
:100B9C0040F3BE809B4B1B68013B9A4A1360994BF8
:100BAC001B68002B1CDC00220121944800F01DFF67
:100BBC0000220421914800F018FF012202218F48E5
:100BCC0000F013FF8C4B02221A608F4B1B688F4A6C
:100BDC0013608E4B1B680121184600F0EFFA97E06A
:100BEC0001220121854800F000FF002204218348E6
:100BFC0000F0FBFE00220221804800F0F6FE814B43
:100C0C001B680121184600F0D9FA81E07F4B1B6864
:100C1C00002B7FDD7D4B1B68013B7C4A13607B4BBB
:100C2C001B68002B1CDC00220121744800F0DDFE47
:100C3C0001220421714800F0D8FE002202216F48E5
:100C4C0000F0D3FE6C4B03221A60714B1B68714A87
:100C5C001360704B1B680121184600F0AFFA59E085
:100C6C0000220121654800F0C0FE002204216348E7
:100C7C0000F0BBFE01220221604800F0B6FE634B7F
:100C8C001B680121184600F099FA43E0614B1B6880
:100C9C00002B41DD5F4B1B68013B5E4A13605D4BD3
:100CAC001B68002B1CDC01220121544800F09DFE26
:100CBC0000220421514800F098FE002202214F48E6
:100CCC0000F093FE4C4B01221A604D4B1B684D4AB1
:100CDC0013604C4B1B680121184600F06FFA1BE0A7
:100CEC0000220121454800F080FE012204214348E6
:100CFC0000F07BFE00220221404800F076FE454BBE
:100D0C001B680121184600F059FA05E000BF04E009
:100D1C0000BF02E000BF00E000BF3F4B1B68032B8D
:100D2C0000F2008101A252F823F000BF490D000827
:100D3C00830D0008310E0008B10E000800220821B6
:100D4C002E4800F052FE002220212C4800F04DFECF
:100D5C0001221021294800F048FE2B4B1B682F4A1A
:100D6C0013602E4B1B680221184600F027FA2A4B01
:100D7C0001221A60DDE0294B1B68002B40F3D48064
:100D8C00264B1B68013B254A1360244B1B68002B28
:100D9C001CDC00220821194800F027FE012220212A
:100DAC00164800F022FE00221021144800F01DFE0F
:100DBC00174B1B681A4A1360174B02221A60184B08
:100DCC001B680221184600F0F9F9ADE00022082159
:100DDC000A4800F00AFE00222021084800F005FE17
:100DEC0001221021054800F000FE0C4B1B6802216B
:100DFC00184600F0E3F997E0B8000020000C014021
:100E0C00C00000202C010020C40000201C01002088
:100E1C00C800002020010020BC0000202801002078
:100E2C0024010020444B1B68002B7FDD424B1B68C8
:100E3C00013B414A1360404B1B68002B1CDC012218
:100E4C0008213E4800F0D1FD002220213B4800F053
:100E5C00CCFD00221021394800F0C7FD384B1B682F
:100E6C00384A1360384B03221A60364B1B68022138
:100E7C00184600F0A3F959E0002208212F4800F091
:100E8C00B4FD012220212D4800F0AFFD00221021DD
:100E9C002A4800F0AAFD284B1B680221184600F0D6
:100EAC008DF943E0274B1B68002B41DD254B1B685C
:100EBC00013B244A1360234B1B68002B1CDC0022D3
:100ECC0008211E4800F091FD002220211B4800F053
:100EDC008CFD01221021194800F087FD1B4B1B686B
:100EEC001B4A1360184B01221A60194B1B68022114
:100EFC00184600F063F91BE0012208210F4800F0AE
:100F0C0074FD002220210D4800F06FFD00221021FD
:100F1C000A4800F06AFD0B4B1B680221184600F0D2
:100F2C004DF905E000BF04E000BF02E000BF00E0A7
:100F3C0000BF00BF80BD00BF24010020000C014099
:100F4C00C000002018010020BC000020C4000020BC
:100F5C002801002080B400AF214B1B68002B0BDD57
:100F6C001F4B1B68013B1E4A13601D4B1B68002B5B
:100F7C0002DC1C4B01221A601B4B1B68002B0BDD87
:100F8C00194B1B68013B184A1360174B1B68002B4D
:100F9C0002DC164B01221A60154B1B68002B0BDD73
:100FAC00134B1B68013B124A1360114B1B68002B3F
:100FBC0002DC104B01221A600F4B1B68002B0BDD5F
:100FCC000D4B1B68013B0C4A13600B4B1B68002B31
:100FDC0002DC0A4B01221A6000BFBD4680BC704780
:100FEC0034010020400100204C0100203801002079
:100FFC003001002048010020440100203C01002069
:10100C0080B483B000AF7860054A7B681360054BF1
:10101C0000221A6000BF0C37BD4680BC704700BF71
:10102C00340100204001002080B483B000AF786010
:10103C00054A7B681360054B00221A6000BF0C3711
:10104C00BD4680BC704700BF4C0100203801002019
:10105C0080B483B000AF7860054A7B681360054BA1
:10106C0000221A6000BF0C37BD4680BC704700BF21
:10107C00300100204801002080B483B000AF7860BC
:10108C00054A7B681360054B00221A6000BF0C37C1
:10109C00BD4680BC704700BF440100203C010020CD
:1010AC0080B485B000AF154B9B69144A43F0010323
:1010BC009361124B9B6903F00103BB60BB680F4B40
:1010CC00DB690E4A43F08053D3610C4BDB6903F0B0
:1010DC0080537B607B680A4B5B68FB60FB6823F08A
:1010EC00E063FB60FB6843F00073FB60044AFB6841
:1010FC00536000BF1437BD4680BC704700100240DF
:10110C000000014080B584B000AF78607B681B683C
:10111C00B3F1804F13D10C4BDB690B4A43F0010345
:10112C00D361094BDB6903F00103FB60FB68002210
:10113C0001211C2000F091FA1C2000F0AAFA00BF3B
:10114C001037BD4680BD00BF0010024080B400AF18
:10115C00FEE780B400AFFEE780B400AFFEE780B4DA
:10116C0000AFFEE780B400AFFEE780B400AF00BF75
:10117C00BD4680BC704780B400AF00BFBD4680BC8C
:10118C00704780B400AF00BFBD4680BC704780B5CF
:10119C0000AF00F06FF900BF80BD000080B500AF5C
:1011AC00024801F0D7F800BF80BD00BFD00000207E
:1011BC0080B400AF00BFBD4680BC704780B483B024
:1011CC0000AF786039603B68032B39D03B68032B48
:1011DC003ADC3B68012B03D03B68022B18D033E080
:1011EC007B681C4A82FB03129210DB17D31A1A4A33
:1011FC0013607968174B83FB01239A10CB17D21A13
:10120C0013469B0013445B00CA1A134B5A601CE034
:10121C007B68104A82FB03129210DB17D31A0E4A1A
:10122C00936079680B4B83FB01239A10CB17D21A6E
:10123C0013469B0013445B00CA1A074BDA6004E0A8
:10124C00054A7B68136100E000BF00BF0C37BD4648
:10125C0080BC7047676666667800002080B500AF7A
:10126C004B4B1B68052B00F28F8001A252F823F028
:10127C0095120008DF12000801130008251300085E
:10128C004B1300087113000800224021414800F064
:10129C00ACFB012280213F4800F0A7FB01224FF458
:1012AC0080713C4800F0A1FB01224FF400713948D9
:1012BC0000F09BFB01224FF48061364800F095FB57
:1012CC00354B1B681846FEF77BFF314B01221A6029
:1012DC005BE040212F4800F0A0FB80212D4800F05E
:1012EC009CFB2D4B5B681846FEF76AFF284B0222CD
:1012FC001A604AE08021274800F08FFB4FF4807180
:10130C00244800F08AFB224B03221A60224B9B6874
:10131C001846FEF755FF38E04FF480711D4800F079
:10132C007CFB4FF400711B4800F077FB184B042238
:10133C001A60194BDB681846FEF742FF25E04FF4A4
:10134C000071144800F069FB4FF48061114800F003
:10135C0064FB0F4B05221A600F4B1B691846FEF7F6
:10136C002FFF12E04FF480610A4800F056FB402139
:10137C00084800F052FB064B01221A60064B1B6812
:10138C001846FEF71DFF00E000BF00BF80BD00BF88
:10139C00CC000020000C0140780000200C480D49C6
:1013AC000D4A002302E0D458C4500433C4188C42B4
:1013BC00F9D30A4A0A4C002301E013600432A2421A
:1013CC00FBD3FFF7F5FE01F00DFBFFF7D3F87047E9
:1013DC000000002094000020882A000894000020BF
:1013EC0054010020FEE7000080B500AF084B1B68DD
:1013FC00074A43F010031360032000F023F90F2079
:10140C0000F008F8FFF74CFE0023184680BD00BF23
:10141C000020024080B582B000AF7860124B1A6891
:10142C00124B1B7819464FF47A73B3FBF1F3B2FBF2
:10143C00F3F3184600F03BF90346002B01D00123CF
:10144C000EE07B680F2B0AD8002279684FF0FF3032
:10145C0000F003F9064A7B681360002300E00123C7
:10146C0018460837BD4680BD74000020900000204F
:10147C008C00002080B400AF054B1B781A46054B3E
:10148C001B681344034A136000BFBD4680BC704701
:10149C00900000205001002080B400AF024B1B686C
:1014AC001846BD4680BC70475001002080B485B002
:1014BC0000AF78607B6803F00703FB600C4BDB68C4
:1014CC00BB60BA684FF6FF031340BB60FB681A029F
:1014DC00BB68134343F0BF6343F40033BB60044A5F
:1014EC00BB68D36000BF1437BD4680BC704700BFDB
:1014FC0000ED00E080B400AF044BDB681B0A03F086
:10150C0007031846BD4680BC704700BF00ED00E0E5
:10151C0080B483B000AF0346FB7197F90730002B02
:10152C000BDBFB7903F01F02064997F907305B09C7
:10153C00012000FA02F241F8232000BF0C37BD460F
:10154C0080BC704700E100E080B483B000AF03467C
:10155C003960FB7197F90730002B0ADB3B68DAB274
:10156C000C4997F907301201D2B20B4483F80023CF
:10157C000AE03B68DAB20849FB7903F00F03043B3D
:10158C001201D2B20B441A7600BF0C37BD4680BC98
:10159C00704700BF00E100E000ED00E080B489B0CE
:1015AC0000AFF860B9607A60FB6803F00703FB6179
:1015BC00FB69C3F10703042B28BF0423BB61FB6940
:1015CC000433062B02D9FB69033B00E000237B614B
:1015DC004FF0FF32BB6902FA03F3DA43BB681A40DF
:1015EC007B699A404FF0FF317B6901FA03F3D943D1
:1015FC007B680B40134318462437BD4680BC7047AC
:10160C0080B582B000AF78607B68013BB3F1807F1E
:10161C0001D301230FE00A4A7B68013B53600F2181
:10162C004FF0FF30FFF790FF054B00229A60044B00
:10163C0007221A60002318460837BD4680BD00BF3C
:10164C0010E000E080B582B000AF78607868FFF7FA
:10165C002DFF00BF0837BD4680BD80B586B000AFFA
:10166C000346B9607A60FB7300237B61FFF742FF8E
:10167C0078617A68B9687869FFF790FF024697F944
:10168C000F3011461846FFF75FFF00BF1837BD46F5
:10169C0080BD80B582B000AF0346FB7197F907306F
:1016AC001846FFF735FF00BF0837BD4680BD80B533
:1016BC0082B000AF78607868FFF7A2FF0346184647
:1016CC000837BD4680BD000080B48BB000AF786099
:1016DC00396000237B6200233B6248E101227B6A74
:1016EC0002FA03F3FB613B681B68FA691340BB61A8
:1016FC00BA69FB699A4240F037813B685B68A34A40
:10170C0093425ED0A14A934275D8A14A934258D0D5
:10171C009F4A93426FD89F4A934252D09D4A93421C
:10172C0069D89D4A93424CD09B4A934263D89B4ABA
:10173C00934246D0994A93425DD8122B2AD8122B49
:10174C0059D801A252F823F0CF170008A9170008A6
:10175C00BB170008FD170008031800080318000841
:10176C0003180008031800080318000803180008E1
:10177C0003180008031800080318000803180008D1
:10178C00031800080318000803180008B117000814
:10179C00C5170008824A934213D02CE03B68DB68E3
:1017AC003B6229E03B68DB6804333B6224E03B6826
:1017BC00DB6808333B621FE03B68DB680C333B6241
:1017CC001AE03B689B68002B02D104233B6213E0B8
:1017DC003B689B68012B05D108233B627B68FA6947
:1017EC001A6109E008233B627B68FA695A6103E0DD
:1017FC0000233B6200E000BFBB69FF2B01D87B6874
:10180C0001E07B6804337B61BB69FF2B02D87B6AE8
:10181C009B0002E07B6A083B9B003B617B691A687A
:10182C000F213B6901FA03F3DB431A40396A3B6928
:10183C0001FA03F31A437B691A603B685B6803F097
:10184C008053002B00F09080564B9B69554A43F017
:10185C0001039361534B9B6903F00103BB60BB68AD
:10186C00514A7B6A9B08023352F82330FB607B6A37
:10187C0003F003039B000F2202FA03F3DB43FA6825
:10188C001340FB607B68494A93420DD07B68484A01
:10189C00934207D07B68474A934201D1022304E06C
:1018AC00032302E0012300E000237A6A02F0030222
:1018BC0092009340FA681343FB603B497B6A9B0898
:1018CC000233FA6841F823203B685B6803F48033E9
:1018DC00002B06D0384B1A683749BB6913430B6091
:1018EC0006E0354B1A68BB69DB43334913400B6088
:1018FC003B685B6803F40033002B06D02E4B5A6810
:10190C002D49BB6913434B6006E02B4B5A68BB69EE
:10191C00DB43294913404B603B685B6803F480133D
:10192C00002B06D0244B9A682349BB6913438B6068
:10193C0006E0214B9A68BB69DB431F4913408B605F
:10194C003B685B6803F40013002B06D01A4BDA6873
:10195C001949BB691343CB6006E0174BDA68BB69C6
:10196C00DB4315491340CB607B6A01337B623B68D8
:10197C001A687B6A22FA03F3002B7FF4AFAE00BF28
:10198C0000BF2C37BD4680BC704700BF0000321032
:10199C000000311000002210000021100000121075
:1019AC00000011100010024000000140000801402E
:1019BC00000C0140001001400004014080B485B0CF
:1019CC0000AF78600B467B807B689A687B881340FD
:1019DC00002B02D00123FB7301E00023FB73FB7B84
:1019EC0018461437BD4680BC704780B483B000AF36
:1019FC0078600B467B8013467B707B78002B03D082
:101A0C007A887B681A6103E07B881A047B681A6108
:101A1C0000BF0C37BD4680BC704780B485B000AFAA
:101A2C0078600B467B807B68DB68FB607A88FB68A0
:101A3C0013401A04FB68D9437B880B401A437B681C
:101A4C001A6100BF1437BD4680BC704780B586B0A4
:101A5C0000AF78607B68002B01D101236CE27B68BE
:101A6C001B6803F00103002B00F08780924B5B682E
:101A7C0003F00C03042B0CD08F4B5B6803F00C03AE
:101A8C00082B12D18C4B5B6803F48033B3F5803F89
:101A9C000BD1894B1B6803F40033002B6CD07B6893
:101AAC005B68002B68D1012346E27B685B68B3F569
:101ABC00803F06D1804B1B687F4A43F48033136010
:101ACC002EE07B685B68002B0CD17B4B1B687A4A41
:101ADC0023F480331360784B1B68774A23F48023FC
:101AEC0013601DE07B685B68B3F5A02F0CD1724BC3
:101AFC001B68714A43F4802313606F4B1B686E4A5A
:101B0C0043F4803313600BE06B4B1B686A4A23F47D
:101B1C0080331360684B1B68674A23F4802313607F
:101B2C007B685B68002B13D0FFF7B6FC386108E0CC
:101B3C00FFF7B2FC02463B69D31A642B01D903238D
:101B4C00FAE15D4B1B6803F40033002BF0D014E07A
:101B5C00FFF7A2FC386108E0FFF79EFC02463B69E8
:101B6C00D31A642B01D90323E6E1534B1B6803F40E
:101B7C000033002BF0D100E000BF7B681B6803F042
:101B8C000203002B63D04C4B5B6803F00C03002B5F
:101B9C000BD0494B5B6803F00C03082B1CD1464B54
:101BAC005B6803F48033002B16D1434B1B6803F0A6
:101BBC000203002B05D07B681B69012B01D001238C
:101BCC00BAE13D4B1B6823F0F8027B685B69DB00D4
:101BDC00394913430B603AE07B681B69002B20D01A
:101BEC00364B01221A60FFF757FC386108E0FFF70B
:101BFC0053FC02463B69D31A022B01D903239BE108
:101C0C002D4B1B6803F00203002BF0D02A4B1B68F2
:101C1C0023F0F8027B685B69DB00274913430B60F8
:101C2C0015E0264B00221A60FFF736FC386108E0FD
:101C3C00FFF732FC02463B69D31A022B01D903236E
:101C4C007AE11D4B1B6803F00203002BF0D17B687B
:101C5C001B6803F00803002B3AD07B689B69002BB0
:101C6C0019D0174B01221A60FFF716FC386108E0F7
:101C7C00FFF712FC02463B69D31A022B01D903234E
:101C8C005AE10D4B5B6A03F00203002BF0D00120EC
:101C9C0000F0A6FA1CE00A4B00221A60FFF7FCFBCE
:101CAC0038610FE0FFF7F8FB02463B69D31A022BB1
:101CBC0008D9032340E100BF00100240000042425B
:101CCC00800442429E4B5B6A03F00203002BE9D175
:101CDC007B681B6803F00403002B00F0A680002334
:101CEC00FB75974BDB6903F08053002B0DD1944BA4
:101CFC00DB69934A43F08053D361914BDB6903F06A
:101D0C008053BB60BB680123FB758E4B1B6803F4CF
:101D1C008073002B18D18B4B1B688A4A43F4807359
:101D2C001360FFF7B9FB386108E0FFF7B5FB02461B
:101D3C003B69D31A642B01D90323FDE0814B1B684B
:101D4C0003F48073002BF0D07B68DB68012B06D189
:101D5C007B4B1B6A7A4A43F0010313622DE07B68CC
:101D6C00DB68002B0CD1764B1B6A754A23F0010300
:101D7C001362734B1B6A724A23F0040313621CE058
:101D8C007B68DB68052B0CD16D4B1B6A6C4A43F0EE
:101D9C00040313626A4B1B6A694A43F00103136222
:101DAC000BE0674B1B6A664A23F001031362644B1A
:101DBC001B6A634A23F0040313627B68DB68002B05
:101DCC0015D0FFF769FB38610AE0FFF765FB0246A7
:101DDC003B69D31A41F28832934201D90323ABE019
:101DEC00574B1B6A03F00203002BEED014E0FFF7F5
:101DFC0053FB38610AE0FFF74FFB02463B69D31AED
:101E0C0041F28832934201D9032395E04C4B1B6A73
:101E1C0003F00203002BEED1FB7D012B05D1484BC7
:101E2C00DB69474A23F08053D3617B68DB69002B65
:101E3C0000F08180424B5B6803F00C03082B61D0EF
:101E4C007B68DB69022B46D13F4B00221A60FFF7FF
:101E5C0023FB386108E0FFF71FFB02463B69D31AEE
:101E6C00022B01D9032367E0354B1B6803F0007389
:101E7C00002BF0D17B681B6AB3F5803F08D1304B47
:101E8C005B6823F400327B689B682D4913434B60DD
:101E9C002B4B5B6823F474127B68196A7B685B6A52
:101EAC000B43274913434B60274B01221A60FFF762
:101EBC00F3FA386108E0FFF7EFFA02463B69D31AF0
:101ECC00022B01D9032337E01D4B1B6803F0007371
:101EDC00002BF0D02FE01C4B00221A60FFF7DCFA2D
:101EEC00386108E0FFF7D8FA02463B69D31A022B97
:101EFC0001D9032320E0124B1B6803F00073002B65
:101F0C00F0D118E07B68DB69012B01D1012313E0D0
:101F1C000B4B5B68FB60FB6803F480327B681B6ACD
:101F2C009A4206D1FB6803F470127B685B6A9A4292
:101F3C0001D0012300E0002318461837BD4680BDB0
:101F4C0000100240007000406000424280B584B036
:101F5C0000AF786039607B68002B01D10123D0E0A1
:101F6C006A4B1B6803F007033A689A4210D9674B17
:101F7C001B6823F0070265493B6813430B60634BF6
:101F8C001B6803F007033A689A4201D00123B8E0BA
:101F9C007B681B6803F00203002B20D07B681B6856
:101FAC0003F00403002B05D0594B5B68584A43F4EB
:101FBC00E06353607B681B6803F00803002B05D0BB
:101FCC00534B5B68524A43F460535360504B5B680D
:101FDC0023F0F0027B689B684D4913434B607B6890
:101FEC001B6803F00103002B40D07B685B68012B5E
:101FFC0007D1474B1B6803F40033002B15D1012389
:10200C007FE07B685B68022B07D1414B1B6803F0B8
:10201C000073002B09D1012373E03D4B1B6803F0C7
:10202C000203002B01D101236BE0394B5B6823F0D9
:10203C0003027B685B68364913434B60FFF72CFA4D
:10204C00F8600AE0FFF728FA0246FB68D31A41F25F
:10205C008832934201D9032353E02D4B5B6803F084
:10206C000C027B685B689B009A42EBD1274B1B6888
:10207C0003F007033A689A4210D2244B1B6823F0F2
:10208C00070222493B6813430B60204B1B6803F08B
:10209C0007033A689A4201D0012332E07B681B683F
:1020AC0003F00403002B08D0194B5B6823F4E062A7
:1020BC007B68DB68164913434B607B681B6803F035
:1020CC000803002B09D0124B5B6823F460527B6829
:1020DC001B69DB000E4913434B6000F021F80246EC
:1020EC000B4B5B681B0903F00F030A49CB5C22FA0C
:1020FC0003F3094A1360094B1B681846FFF78AF96A
:10210C00002318461037BD4680BD00BF002002409A
:10211C0000100240702A0008740000208C0000207F
:10212C0090B48AB000AF2A4B3C1D0FCB84E80F0053
:10213C0040F201233B800023FB610023BB610023A1
:10214C007B6200237B6100233B62224B5B68FB615B
:10215C00FB6903F00C03042B02D0082B03D02DE0F9
:10216C001D4B3B622DE0FB699B0C03F00F0307F149
:10217C002802134413F8243C7B61FB6903F480337D
:10218C00002B13D0134B5B685B0C03F0010307F1BE
:10219C002802134413F8283CBB617B690E4A02FBEE
:1021AC0003F2BB69B2FBF3F37B6204E07B690B4A7D
:1021BC0002FB03F37B627B6A3B6202E0064B3B62F1
:1021CC0000BF3B6A18462837BD4690BC704700BF1D
:1021DC00602A00080010024000127A0000093D003D
:1021EC0080B485B000AF78600A4B1B680A4AA2FB2A
:1021FC0003235B0A7A6802FB03F3FB6000BFFB68F6
:10220C005A1EFA60002BF9D100BF00BF1437BD462F
:10221C0080BC704774000020D34D621080B582B032
:10222C0000AF78607B68002B01D1012341E07B6813
:10223C0093F83D30DBB2002B06D17B68002283F88B
:10224C003C207868FEF75EFF7B68022283F83D2015
:10225C007B681A687B6804331946104600F06AFAEA
:10226C007B68012283F846207B68012283F83E209C
:10227C007B68012283F83F207B68012283F8402091
:10228C007B68012283F841207B68012283F842207D
:10229C007B68012283F843207B68012283F8442069
:1022AC007B68012283F845207B68012283F83D205E
:1022BC00002318460837BD4680BD000080B485B0A9
:1022CC0000AF78607B6893F83D30DBB2012B01D016
:1022DC00012335E07B68022283F83D207B681B6874
:1022EC00DA687B681B6842F00102DA607B681B6865
:1022FC00164A934209D07B681B68B3F1804F04D017
:10230C007B681B68124A934211D17B681B689B68DF
:10231C0003F00703FB60FB68062B10D07B681B687F
:10232C001A687B681B6842F001021A6007E07B6840
:10233C001B681A687B681B6842F001021A60002354
:10234C0018461437BD4680BC704700BF002C0140B6
:10235C000004004080B582B000AF78607B681B68D9
:10236C001B6903F00203022B22D17B681B68DB681C
:10237C0003F00203022B1BD17B681B686FF0020277
:10238C001A617B6801221A777B681B689B6903F0D2
:10239C000303002B03D0786800F0B1F905E07868EE
:1023AC0000F0A4F9786800F0B3F97B6800221A7782
:1023BC007B681B681B6903F00403042B22D17B6828
:1023CC001B68DB6803F00403042B1BD17B681B68C0
:1023DC006FF004021A617B6802221A777B681B6813
:1023EC009B6903F44073002B03D0786800F087F9E5
:1023FC0005E0786800F07AF9786800F089F97B6874
:10240C0000221A777B681B681B6903F00803082BF2
:10241C0022D17B681B68DB6803F00803082B1BD1F7
:10242C007B681B686FF008021A617B6804221A77BC
:10243C007B681B68DB6903F00303002B03D078680F
:10244C0000F05DF905E0786800F050F9786800F06C
:10245C005FF97B6800221A777B681B681B6903F0A5
:10246C001003102B22D17B681B68DB6803F0100370
:10247C00102B1BD17B681B686FF010021A617B68F4
:10248C0008221A777B681B68DB6903F44073002B06
:10249C0003D0786800F033F905E0786800F026F98D
:1024AC00786800F035F97B6800221A777B681B6826
:1024BC001B6903F00103012B0ED17B681B68DB68E1
:1024CC0003F00103012B07D17B681B686FF001023D
:1024DC001A617868FEF71AFB7B681B681B6903F0AE
:1024EC008003802B0ED17B681B68DB6803F08003B4
:1024FC00802B07D17B681B686FF080021A617868AB
:10250C0000F067FA7B681B681B6903F04003402BE3
:10251C000ED17B681B68DB6803F04003402B07D1AE
:10252C007B681B686FF040021A61786800F0F9F85C
:10253C007B681B681B6903F02003202B0ED17B6882
:10254C001B68DB6803F02003202B07D17B681B681A
:10255C006FF020021A61786800F032FA00BF083779
:10256C00BD4680BD80B584B000AF786039607B68B3
:10257C0093F83C30012B01D10223B3E07B6801229C
:10258C0083F83C207B68022283F83D207B681B6823
:10259C009B68FB60FB6823F07703FB60FB6823F40C
:1025AC007F43FB607B681B68FA689A603B681B681A
:1025BC00B3F5005F3ED0B3F5005F00F28780B3F552
:1025CC00805F00F08580B3F5805F7FD8702B1AD0C8
:1025DC00702B7BD8602B50D0602B77D8502B3CD0F5
:1025EC00502B73D8402B58D0402B6FD8302B64D045
:1025FC00302B6BD8202B60D0202B67D8002B5CD0D5
:10260C00102B5AD062E07B6818683B6899683B686D
:10261C005A683B68DB6800F05CF97B681B689B6858
:10262C00FB60FB6843F07703FB607B681B68FA6810
:10263C009A604EE07B6818683B6899683B685A68FA
:10264C003B68DB6800F045F97B681B689A687B681F
:10265C001B6842F480429A603BE07B6818683B68D8
:10266C0059683B68DB681A4600F0BCF87B681B684D
:10267C005021184600F013F92BE07B6818683B6872
:10268C0059683B68DB681A4600F0DAF87B681B680F
:10269C006021184600F003F91BE07B6818683B6862
:1026AC0059683B68DB681A4600F09CF87B681B682D
:1026BC004021184600F0F3F80BE07B681A683B6881
:1026CC001B681946104600F0EAF802E000BF00E073
:1026DC0000BF7B68012283F83D207B68002283F8D1
:1026EC003C20002318461037BD4680BD80B483B013
:1026FC0000AF786000BF0C37BD4680BC704780B41B
:10270C0083B000AF786000BF0C37BD4680BC70470B
:10271C0080B483B000AF786000BF0C37BD4680BC7E
:10272C00704780B483B000AF786000BF0C37BD46F3
:10273C0080BC704780B485B000AF786039607B682E
:10274C001B68FB607B68254A934207D07B68B3F11A
:10275C00804F03D07B68224A934208D1FB6823F058
:10276C007003FB603B685B68FA681343FB607B6833
:10277C001A4A934207D07B68B3F1804F03D07B6831
:10278C00174A934208D1FB6823F44073FB603B6803
:10279C00DB68FA681343FB60FB6823F080023B683C
:1027AC005B691343FB607B68FA681A603B689A6844
:1027BC007B68DA623B681A687B689A627B68074AB6
:1027CC00934203D13B681A697B681A637B680122C8
:1027DC005A6100BF1437BD4680BC7047002C0140C5
:1027EC000004004080B487B000AFF860B9607A6034
:1027FC00FB681B6A7B61FB681B6A23F00102FB68A8
:10280C001A62FB689B693B613B6923F0F0033B61F7
:10281C007B681B013A6913433B617B6923F00A0314
:10282C007B617A69BB6813437B61FB683A699A6187
:10283C00FB687A691A6200BF1C37BD4680BC7047C2
:10284C0080B487B000AFF860B9607A60FB681B6A2F
:10285C0023F01002FB681A62FB689B697B61FB68C2
:10286C001B6A3B617B6923F470437B617B681B03B0
:10287C007A6913437B613B6923F0A0033B61BB681E
:10288C001B013A6913433B61FB687A699A61FB68E7
:10289C003A691A6200BF1C37BD4680BC704780B4D1
:1028AC0085B000AF786039607B689B68FB60FB6823
:1028BC0023F07003FB603A68FB68134343F0070393
:1028CC00FB607B68FA689A6000BF1437BD4680BC19
:1028DC00704780B487B000AFF860B9607A603B6035
:1028EC00FB689B687B617B6923F47F437B613B685E
:1028FC001A027B681A43BB6813437A6913437B61E2
:10290C00FB687A699A6000BF1C37BD4680BC704773
:10291C0080B485B000AF786039607B6893F83C3048
:10292C00012B01D1022341E07B68012283F83C207A
:10293C007B68022283F83D207B681B685B68FB6028
:10294C007B681B689B68BB60FB6823F07003FB60B3
:10295C003B681B68FA681343FB607B681B68FA686A
:10296C005A607B681B68144A934209D07B681B68C9
:10297C00B3F1804F04D07B681B68104A93420CD192
:10298C00BB6823F08003BB603B685B68BA68134389
:10299C00BB607B681B68BA689A607B68012283F80D
:1029AC003D207B68002283F83C2000231846143716
:1029BC00BD4680BC704700BF002C014000040040A5
:1029CC0080B483B000AF786000BF0C37BD4680BCCC
:1029DC00704780B483B000AF786000BF0C37BD4641
:1029EC0080BC704770B500260C4D0D4C641BA410B8
:1029FC00A64209D100F022F800260A4D0A4C641BAD
:102A0C00A410A64205D170BD55F8043B9847013679
:102A1C00EEE755F8043B98470136F2E7802A0008A8
:102A2C00802A0008802A0008842A000803460244F1
:102A3C00934200D1704703F8011BF9E7F8B500BFCA
:102A4C00F8BC08BC9E467047F8B500BFF8BC08BC83
:042A5C009E467047DB
:102A600002030405060708090A0B0C0D0E0F1010CF
:102A7000000000000000000001020304060708092E
:042A80003101000818
:042A84000D01000838
:102A88000008014000080140000801400004000857
:102A9800001000000100000001000000010000001B
:102AA800010000000100000001000000010000001A
:102AB800010000000100000001000000010000000A
:102AC80001000000010000000100000001000000FA
:102AD80064000000640000006400000014000000AE
:102AE80014000000140000000500000003000000AE
:102AF800020000000024F4000100000002000000B1
:102B080003000000040000000500000010000000A1
:042B180001000000B8
:04000005080013A933
:00000001FF
