:020000040800F2
:10000000002800206D140008FD13000803140008E8
:10001000091400080F14000815140008000000005F
:100020000000000000000000000000001B14000899
:100030002714000800000000331400083F140008D3
:10004000B5140008B5140008B5140008B51400086C
:10005000B5140008B5140008B5140008B51400085C
:10006000B5140008B5140008B5140008B51400084C
:10007000B5140008B5140008B5140008B51400083C
:10008000B5140008B5140008B5140008B51400082C
:10009000B5140008B5140008B5140008B51400081C
:1000A000B5140008B5140008B5140008B51400080C
:1000B0004D140008B514000800000000B514000835
:1000C000B51400080000000000000000B51400088E
:1000D00000000000B5140008B5140008000000007E
:1000E000B5140008B5140008B5140008000000009D
:1000F0000000000000000000000000000000000000
:0C01000000000000000000005FF808F1A3
:10010C0010B5054C237833B9044B13B10448AFF345
:10011C0000800123237010BDA4000020000000000B
:10012C000C2B000808B5034B1BB103490348AFF374
:10013C00008008BD00000000A80000200C2B000867
:10014C0080B582B000AF00237B60ABE05A4A7B687D
:10015C0052F8232059497B6841F82320584A7B6880
:10016C0052F8232054497B6841F82320554A7B6878
:10017C0052F8232054497B6831F813301946104645
:10018C0001F07EFC034619464D4A7B6842F8231069
:10019C004A4A7B6852F8232047497B6851F8233040
:1001AC009A4277D1444A7B6852F8232044497B68B1
:1001BC0051F823309A426DD1444A7B6852F823207F
:1001CC003E497B6851F823309A4229D03F4A7B68DC
:1001DC0052F82330002B02D0012B11D05FE03B4AA8
:1001EC007B68012142F82310394A7B6852F823308E
:1001FC00002B51DD374A7B68002142F823104BE07D
:10020C00324A7B68002142F82310334A7B68642110
:10021C0042F823102E4A7B68142142F823103EE04A
:10022C002A4A7B6852F82330002B01D0012B36E090
:10023C00294A7B6852F82330002B1BDD264A7B6849
:10024C0052F823305A1E24497B6841F82320224A55
:10025C007B6852F82330002B0CDC1E4A7B68002193
:10026C0042F823107B68012B04D11B4A7B680A21BE
:10027C0042F82310164A7B6852F82330002B0DDD10
:10028C00134A7B6852F823305A1E11497B6841F897
:10029C00232003E000BF02E000BF00E000BF7B684A
:1002AC0001337B607B68022B7FF750AF00BF00BF30
:1002BC000837BD4680BD00BF2C0000202000002068
:1002CC0038000020000000200C000020140000204A
:1002DC005C000020440000205000002080B483B05B
:1002EC0000AF786039603B68032B39D03B68032B37
:1002FC003ADC3B68012B03D03B68022B18D033E06F
:10030C007B681C4A82FB03129210DB17D31A1A4A21
:10031C0013607968174B83FB01239A10CB17D21A01
:10032C0013469B0013445B00CA1A134B5A601CE023
:10033C007B68104A82FB03129210DB17D31A0E4A09
:10034C00936079680B4B83FB01239A10CB17D21A5D
:10035C0013469B0013445B00CA1A074BDA6004E097
:10036C00054A7B68136100E000BF00BF0C37BD4637
:10037C0080BC7047676666668400002080B582B0DA
:10038C0000AF786001217868FFF7A8FF00BF08373D
:10039C00BD4680BD80B582B000AF78600221786820
:1003AC00FFF79CFF00BF0837BD4680BD80B582B00B
:1003BC0000AF786003217868FFF790FF00BF083723
:1003CC00BD4680BD80B500AF00F074FD00BF80BDA0
:1003DC0080B500AF0521082000F00CFE0521092096
:1003EC0000F008FE00BF80BD80B500AF03210820DF
:1003FC0000F000FE0321092000F0FCFD00BF80BDD1
:10040C0080B500AF0421082000F0F4FD0421092080
:10041C0000F0F0FD00BF80BD80B500AF06210820C4
:10042C0000F0E8FD0621092000F0E4FD00BF80BDCE
:10043C0080B500AF0721082000F0DCFD0721092062
:10044C0000F0D8FD00BF80BD80B500AF00210820B2
:10045C0000F0D0FD00BF80BD80B500AF02210820A8
:10046C0000F0C8FD00BF80BD80B500AF01210820A1
:10047C0000F0C0FD00BF80BD80B500AF0021092099
:10048C0000F0B8FD00BF80BD80B500AF022109208F
:10049C0000F0B0FD00BF80BD80B500AF0121092088
:1004AC0000F0A8FD00BF80BD80B500AF00F0FEFFDE
:1004BC0000F0D0F900F056FA00F008FAA04801F06C
:1004CC005FFFFFF7A9FF00F0C3FA642000F0FEFE07
:1004DC00FFF778FF142000F021FF012000F0E2FE6E
:1004EC00984B1B68012B40F06081012000F0DAFE74
:1004FC00FFF726FE944B1B68002B40F0A580924B17
:10050C0001221A60914B1B68042B00F29F8001A200
:10051C0052F823F03505000879050008AF050008EE
:10052C00E50500081B060008884B01221A60884B61
:10053C0000221A60874B1B68874A1360874B1B6825
:10054C00874A1360874B1B68874A1360FFF764FF69
:10055C000120FFF72BFF00F07BFA642000F0B6FEC1
:10056C00FFF730FF142000F0D9FE70E0774B022229
:10057C001A60774B01221A60FFF74EFFFFF734FF2A
:10058C00322000F0B7FE754B1B681846FFF7F6FEDD
:10059C00724B1B681846FFF7FDFE0220FFF706FFA3
:1005AC0055E06A4B03221A60694B01221A60FFF76F
:1005BC0033FFFFF70DFF322000F09CFE694B1B68E8
:1005CC001846FFF7DBFE674B1B681846FFF7E2FE89
:1005DC000320FFF7EBFE3AE05C4B04221A605C4B05
:1005EC0001221A60FFF718FFFFF70AFF322000F014
:1005FC0081FE584B1B681846FFF7C0FE554B1B6815
:10060C001846FFF7C7FE0420FFF7D0FE1FE04F4B44
:10061C0001221A604E4B00221A604E4B1B684E4A48
:10062C0013604E4B1B684E4A13604E4B1B684E4A70
:10063C001360FFF7F1FE0120FFF7B8FE00F008FA97
:10064C00642000F043FE02E000BF00E000BF3E4B20
:10065C005B68002B52D13C4B01225A603B4B1B6810
:10066C00042B34D0042B4BDC022B02D0032B17D0E1
:10067C0046E03B4B1B680133394A1360384B1B680F
:10068C00632B02DD364B00221A60354B1B68184673
:10069C00FFF774FE324B1B681846FFF77BFE30E009
:1006AC00314B1B680133304A13602F4B1B68632B93
:1006BC0002DD2D4B00221A602B4B1B681846FFF7EE
:1006CC005DFE294B1B681846FFF764FE19E0224BB0
:1006DC001B680133204A13601F4B1B68632B02DD20
:1006EC001D4B00221A601C4B1B681846FFF746FE78
:1006FC00194B1B681846FFF74DFE02E000BF00E0E7
:10070C0000BF114B9B68002B4FD10F4B01229A60FD
:10071C00154B1A68104B1B681A44114B1B689A42F4
:10072C0024D05820FFF72AFE5820FFF733FE08206C
:10073C00FFF73CFEFFF77CFE044B00221A6034E00E
:10074C00D000002040010020440000206800002060
:10075C00C00000207C0000207000002078000020E9
:10076C006C00002080000020740000202C4B1B68C3
:10077C002C4A13602C4B1B682C4A13602C4B1B68A7
:10078C002C4A13602C4B00221A602C4B00221A604E
:10079C002B4B1B68012B03D0294B1B68002B04D15E
:1007AC0000F056F9642000F091FD264B1B68012BDC
:1007BC0008D1642000F08AFD234B1B68002B01D16B
:1007CC0000F046F9214B1B68012B1AD1322000F0A6
:1007DC0091FD1D4B1B68012B13D1194B1B68042B6E
:1007EC000CD0042B0FDC022B02D0032B03D00AE01D
:1007FC00FFF7FAFD08E0FFF7EBFD05E0FFF700FE61
:10080C0002E000BF00E000BF114B1B68012B7FF41E
:10081C0067AEFFF7D7FD142000F080FD60E600BF47
:10082C00700000207C0000206C000020780000206C
:10083C007400002080000020C4000020C8000020AC
:10084C006800002038010020C00000204801002072
:10085C003C01002080B590B000AF07F118032822AE
:10086C000021184602F044F93B1D00221A605A6020
:10087C009A60DA601A610223BB610123BB62102308
:10088C00FB6200237B6307F11803184601F040F963
:10089C000346002B01D000F0D5F80F237B6000231A
:1008AC00BB600023FB6000233B6100237B613B1D8D
:1008BC000021184601F0ACFB0346002B01D000F0E0
:1008CC00C1F800BF4037BD4680BD000080B586B082
:1008DC0000AF07F1080300221A605A609A60DA60D0
:1008EC003B4600221A605A601D4B4FF080421A6042
:1008FC001B4B41F63F725A60194B00229A60184B01
:10090C000922DA60164B00221A61154B00229A61FB
:10091C00134801F0E5FC0346002B01D000F092F8DF
:10092C004FF48053BB6007F1080319460C4801F0E3
:10093C007BFE0346002B01D000F084F800233B60C3
:10094C0000237B603B461946054802F043F80346FA
:10095C00002B01D000F076F800BF1837BD4680BDE3
:10096C00D000002080B586B000AF07F1080300224C
:10097C001A605A609A60DA602A4B9B69294A43F0E4
:10098C0004039361274B9B6903F004037B607B6832
:10099C00244B9B69234A43F008039361214B9B69C9
:1009AC0003F008033B603B6800227F211E4801F0E6
:1009BC007EF801223F211D4801F079F800224FF406
:1009CC00F8611A4801F073F87F23BB600123FB60C8
:1009DC0000233B6103237B6107F10803194612488E
:1009EC0000F0D4FE40F2FF73BB600123FB600023D8
:1009FC003B6103237B6107F1080319460B4800F0A8
:100A0C00C5FE4FF4E053BB600023FB6001233B6148
:100A1C0007F108031946044800F0B8FE00BF183768
:100A2C00BD4680BD0010024000080140000C014092
:100A3C0080B582B000AF786000F0DEFB00BF0837F5
:100A4C00BD4680BD80B400AF72B600BFFEE70000AB
:100A5C0080B500AF924B1B68032B00F2868001A27D
:100A6C0052F823F0810A00089F0A0008E70A0008E0
:100A7C002F0B00088B4B1B688B4A1360884B012291
:100A8C001A60FFF7E1FC884B1B681846FFF776FCF1
:100A9C0072E0854B1B68002B69DD834B1B68013BA7
:100AAC00814A1360804B1B68002B0EDC7F4B1B684C
:100ABC007F4A13607A4B02221A60FFF7D5FC7C4BFD
:100ACC001B681846FFF75AFC51E0FFF7BDFC764B4C
:100ADC001B681846FFF752FC49E0754B1B68002B4E
:100AEC0047DD734B1B68013B714A1360704B1B68ED
:100AFC00002B0EDC6F4B1B686F4A1360684B032294
:100B0C001A60FFF7A9FC6C4B1B681846FFF736FC04
:100B1C002FE0FFF7A9FC664B1B681846FFF72EFC6D
:100B2C0027E0654B1B68002B25DD634B1B68013BE5
:100B3C00614A1360604B1B68002B0EDC594B1B6821
:100B4C00594A1360564B01221A60FFF77DFC564B35
:100B5C001B681846FFF712FC0DE0FFF77DFC564BA7
:100B6C001B681846FFF70AFC05E000BF04E000BF55
:100B7C0002E000BF00E000BF504B1B68032B00F2EB
:100B8C00868001A252F823F0A50B0008C30B0008C5
:100B9C000B0C0008530C0008484B01221A60434B05
:100BAC001B68474A1360FFF777FC454B1B681846D8
:100BBC00FFF7F0FB72E0424B1B68002B69DD404BEA
:100BCC001B68013B3E4A13603D4B1B68002B0EDC3F
:100BDC00FFF75AFC374B1B683A4A1360374B02221B
:100BEC001A60384B1B681846FFF7D4FB51E0FFF72F
:100BFC0053FC334B1B681846FFF7CCFB49E0314BD9
:100C0C001B68002B47DD2F4B1B68013B2D4A1360E3
:100C1C002C4B1B68002B0EDC224B1B682A4A1360E2
:100C2C00264B03221A60FFF727FC274B1B6818463C
:100C3C00FFF7B0FB2FE0FFF727FC224B1B68184691
:100C4C00FFF7A8FB27E0204B1B68002B25DD1E4B74
:100C5C001B68013B1C4A13601B4B1B68002B0EDCF2
:100C6C00124B1B68164A1360144B01221A60FFF7D3
:100C7C0013FC134B1B681846FFF78CFB0DE0FFF7BA
:100C8C00FBFB114B1B681846FFF784FB05E000BF0C
:100C9C0004E000BF02E000BF00E000BF00BF80BD69
:100CAC00C4000020780000202C0100207C000020D3
:100CBC001C0100208000002020010020C800002022
:100CCC0028010020240100201801002090B583B0D9
:100CDC0000AF0446084611461A462346FB710346EC
:100CEC00BB710B467B7113463B71FB791A46012194
:100CFC00154800F0DCFEBB791A460221124800F0C0
:100D0C00D6FE7B791A4604210F4800F0D0FE3B79C1
:100D1C001A4608210C4800F0CAFE3B7E1A461021E8
:100D2C00094800F0C4FE3B7F1A462021064800F01B
:100D3C00BEFE97F820301A464021034800F0B7FE5B
:100D4C0000BF0C37BD4690BD0008014080B586B091
:100D5C0004AF78607B68092B00F29A8001A252F8EC
:100D6C0023F000BF990D0008B30D0008CD0D00084D
:100D7C00E70D0008010E00081B0E0008350E0008D8
:100D8C004F0E0008690E0008830E00080123029321
:100D9C000023019300230093002300220021002054
:100DAC00FFF794FF81E001230293012301930123B8
:100DBC0000930123002200210120FFF787FF74E03C
:100DCC0000230293012301930023009300230122AB
:100DDC0000210020FFF77AFF67E000230293012334
:100DEC000193012300930023002200210020FFF730
:100DFC006DFF5AE00023029300230193012300931B
:100E0C000123002200210120FFF760FF4DE00023A9
:100E1C00029300230193012300930023002201215C
:100E2C000020FFF753FF40E00023029300230193BF
:100E3C00002300930023002201210020FFF746FF2E
:100E4C0033E0012302930123019301230093012337
:100E5C00002200210020FFF739FF26E00023029337
:100E6C000023019300230093002300220021002083
:100E7C00FFF72CFF19E000230293002301930123B9
:100E8C0000930023002200210020FFF71FFF0CE03D
:100E9C0000230293002301930123009300230022DB
:100EAC0000210020FFF712FF00BF00BF0837BD462E
:100EBC0080BD00BF80B500AF4B4B1B68052B00F20B
:100ECC008F8001A252F823F0ED0E0008370F0008B6
:100EDC00590F00087D0F0008A30F0008C90F000868
:100EEC0000224021414800F0E2FD012280213F48D0
:100EFC0000F0DDFD01224FF480713C4800F0D7FD7D
:100F0C0001224FF40071394800F0D1FD01224FF459
:100F1C008061364800F0CBFD354B1B681846FFF757
:100F2C0015FF314B01221A605BE040212F4800F085
:100F3C00D6FD80212D4800F0D2FD2D4B5B68184664
:100F4C00FFF704FF284B02221A604AE08021274851
:100F5C0000F0C5FD4FF48071244800F0C0FD244B17
:100F6C009B681846FFF7F2FE1F4B03221A6038E00D
:100F7C004FF480711D4800F0B2FD4FF400711B4816
:100F8C0000F0ADFD184B04221A60194BDB681846B3
:100F9C00FFF7DCFE25E04FF40071144800F09FFDD4
:100FAC004FF48061114800F09AFD0F4B05221A6036
:100FBC000F4B1B691846FFF7C9FE12E04FF4806116
:100FCC000A4800F08CFD4021084800F088FD064BD3
:100FDC0001221A60064B1B681846FFF7B7FE00E0AB
:100FEC0000BF00BF80BD00BFCC000020000C014042
:100FFC008400002080B582B000AF786039607B68D7
:10100C00082B03D07B68092B77D0EEE03B68072BCD
:10101C0071D801A252F823F04510000865100008A1
:10102C0085100008A5100008B9100008AF100008C2
:10103C00C3100008E3100008012201216D4800F0E4
:10104C0036FD002204216B4800F031FD0022022104
:10105C00684800F02CFD4FE000220121654800F0AB
:10106C0026FD00220421634800F021FD012202210B
:10107C00604800F01CFD3FE0002201215D4800F0BB
:10108C0016FD012204215B4800F011FD0022022113
:10109C00584800F00CFD2FE00121564800F01FFDD0
:1010AC002AE00421534800F01AFD25E002215148A2
:1010BC0000F015FD20E0002201214E4800F0F7FC65
:1010CC00002204214B4800F0F2FC00220221494886
:1010DC0000F0EDFC10E001220121464800F0E7FC95
:1010EC0001220421434800F0E2FC01220221414884
:1010FC0000F0DDFC00E000BF77E03B68072B72D806
:10110C0001A252F823F000BF351100085511000858
:10111C007511000895110008A91100089F1100080D
:10112C00B3110008D311000801220821314800F046
:10113C00BEFC002220212F4800F0B9FC0022102117
:10114C002C4800F0B4FC4FE000220821294800F0A4
:10115C00AEFC00222021274800F0A9FC012210211E
:10116C00244800F0A4FC3FE000220821214800F0B4
:10117C009EFC012220211F4800F099FC0022102126
:10118C001C4800F094FC2FE008211A4800F0A7FC42
:10119C002AE02021174800F0A2FC25E01021154878
:1011AC0000F09DFC20E000220821124800F07FFC9A
:1011BC00002220210F4800F07AFC002210210D485B
:1011CC0000F075FC10E0012208210A4800F06FFCC9
:1011DC0001222021074800F06AFC01221021054859
:1011EC0000F065FC00E000BF00BF00BF0837BD4643
:1011FC0080BD00BF000C014080B400AF214B1B68C8
:10120C00002B0BDD1F4B1B68013B1E4A13601D4B53
:10121C001B68002B02DC1C4B01221A601B4B1B6849
:10122C00002B0BDD194B1B68013B184A1360174B45
:10123C001B68002B02DC164B01221A60154B1B6835
:10124C00002B0BDD134B1B68013B124A1360114B37
:10125C001B68002B02DC104B01221A600F4B1B6821
:10126C00002B0BDD0D4B1B68013B0C4A13600B4B29
:10127C001B68002B02DC0A4B01221A6000BFBD4622
:10128C0080BC704734010020400100204C0100203C
:10129C0038010020300100204801002044010020CA
:1012AC003C01002080B483B000AF7860054A7B68B5
:1012BC001360054B00221A6000BF0C37BD4680BC82
:1012CC00704700BF340100204001002080B483B07F
:1012DC0000AF7860054A7B681360054B00221A60EA
:1012EC0000BF0C37BD4680BC704700BF4C010020CE
:1012FC003801002080B483B000AF7860054A7B6869
:10130C001360054B00221A6000BF0C37BD4680BC31
:10131C00704700BF300100204801002080B483B02A
:10132C0000AF7860054A7B681360054B00221A6099
:10133C0000BF0C37BD4680BC704700BF4401002085
:10134C003C01002080B485B000AF154B9B69144A5A
:10135C0043F001039361124B9B6903F00103BB60E3
:10136C00BB680F4BDB690E4A43F08053D3610C4BC7
:10137C00DB6903F080537B607B680A4B5B68FB6026
:10138C00FB6823F0E063FB60FB6843F00073FB60D9
:10139C00044AFB68536000BF1437BD4680BC7047DD
:1013AC00001002400000014080B584B000AF7860AE
:1013BC007B681B68B3F1804F13D10C4BDB690B4A74
:1013CC0043F00103D361094BDB6903F00103FB60BC
:1013DC00FB68002201211C2000F0A1F91C2000F068
:1013EC00BAF900BF1037BD4680BD00BF00100240E7
:1013FC0080B400AFFEE780B400AFFEE780B400AF6E
:10140C00FEE780B400AFFEE780B400AFFEE780B427
:10141C0000AF00BFBD4680BC704780B400AF00BFBA
:10142C00BD4680BC704780B400AF00BFBD4680BCD9
:10143C00704780B500AF00F07FF800BF80BD0000A2
:10144C0080B500AF024800F0E7FF00BF80BD00BFD1
:10145C00D000002080B400AF00BFBD4680BC7047F8
:10146C000C480D490D4A002302E0D458C4500433F3
:10147C00C4188C42F9D30A4A0A4C002301E01360C9
:10148C000432A242FBD3FFF7E5FF01F00DFBFFF79F
:10149C000BF8704700000020A40000204C2B000823
:1014AC00A400002054010020FEE7000080B500AF2E
:1014BC00084B1B68074A43F010031360032000F02D
:1014CC0023F90F2000F008F8FFF73CFF0023184623
:1014DC0080BD00BF0020024080B582B000AF7860B4
:1014EC00124B1A68124B1B7819464FF47A73B3FBE4
:1014FC00F1F3B2FBF3F3184600F03BF90346002B73
:10150C0001D001230EE07B680F2B0AD800227968EA
:10151C004FF0FF3000F003F9064A7B68136000239C
:10152C0000E0012318460837BD4680BD9800002016
:10153C00A00000209C00002080B400AF054B1B785D
:10154C001A46054B1B681344034A136000BFBD4683
:10155C0080BC7047A00000205001002080B400AF78
:10156C00024B1B681846BD4680BC704750010020DA
:10157C0080B485B000AF78607B6803F00703FB6034
:10158C000C4BDB68BB60BA684FF6FF031340BB60C3
:10159C00FB681A02BB68134343F0BF6343F4003388
:1015AC00BB60044ABB68D36000BF1437BD4680BC27
:1015BC00704700BF00ED00E080B400AF044BDB6867
:1015CC001B0A03F007031846BD4680BC704700BFDA
:1015DC0000ED00E080B483B000AF0346FB7197F9D7
:1015EC000730002B0BDBFB7903F01F02064997F940
:1015FC0007305B09012000FA02F241F8232000BFFA
:10160C000C37BD4680BC704700E100E080B483B06D
:10161C0000AF03463960FB7197F90730002B0ADBEA
:10162C003B68DAB20C4997F907301201D2B20B447D
:10163C0083F800230AE03B68DAB20849FB7903F02F
:10164C000F03043B1201D2B20B441A7600BF0C37C5
:10165C00BD4680BC704700BF00E100E000ED00E03B
:10166C0080B489B000AFF860B9607A60FB6803F0B1
:10167C000703FB61FB69C3F10703042B28BF042399
:10168C00BB61FB690433062B02D9FB69033B00E009
:10169C0000237B614FF0FF32BB6902FA03F3DA439C
:1016AC00BB681A407B699A404FF0FF317B6901FAA5
:1016BC0003F3D9437B680B40134318462437BD46CC
:1016CC0080BC704780B582B000AF78607B68013B0E
:1016DC00B3F1807F01D301230FE00A4A7B68013B01
:1016EC0053600F214FF0FF30FFF790FF054B0022A6
:1016FC009A60044B07221A60002318460837BD462F
:10170C0080BD00BF10E000E080B582B000AF786013
:10171C007868FFF72DFF00BF0837BD4680BD80B548
:10172C0086B000AF0346B9607A60FB7300237B611F
:10173C00FFF742FF78617A68B9687869FFF790FF24
:10174C00024697F90F3011461846FFF75FFF00BFAE
:10175C001837BD4680BD80B582B000AF0346FB7123
:10176C0097F907301846FFF735FF00BF0837BD461D
:10177C0080BD80B582B000AF78607868FFF7A2FFBB
:10178C00034618460837BD4680BD000080B48BB0B8
:10179C0000AF7860396000237B6200233B6248E134
:1017AC0001227B6A02FA03F3FB613B681B68FA694E
:1017BC001340BB61BA69FB699A4240F037813B68C0
:1017CC005B68A34A93425ED0A14A934275D8A14A62
:1017DC00934258D09F4A93426FD89F4A934252D01B
:1017EC009D4A934269D89D4A93424CD09B4A93425E
:1017FC0063D89B4A934246D0994A93425DD8122BA8
:10180C002AD8122B59D801A252F823F093180008A9
:10181C006D1800087F180008C1180008C7180008C8
:10182C00C7180008C7180008C7180008C718000810
:10183C00C7180008C7180008C7180008C718000800
:10184C00C7180008C7180008C7180008C7180008F0
:10185C007518000889180008824A934213D02CE0AE
:10186C003B68DB683B6229E03B68DB6804333B6226
:10187C0024E03B68DB6808333B621FE03B68DB68B5
:10188C000C333B621AE03B689B68002B02D10423AB
:10189C003B6213E03B689B68012B05D108233B623C
:1018AC007B68FA691A6109E008233B627B68FA6974
:1018BC005A6103E000233B6200E000BFBB69FF2BD1
:1018CC0001D87B6801E07B6804337B61BB69FF2B2B
:1018DC0002D87B6A9B0002E07B6A083B9B003B6161
:1018EC007B691A680F213B6901FA03F3DB431A4049
:1018FC00396A3B6901FA03F31A437B691A603B6846
:10190C005B6803F08053002B00F09080564B9B6972
:10191C00554A43F001039361534B9B6903F0010358
:10192C00BB60BB68514A7B6A9B08023352F8233078
:10193C00FB607B6A03F003039B000F2202FA03F3A4
:10194C00DB43FA681340FB607B68494A93420DD035
:10195C007B68484A934207D07B68474A934201D13F
:10196C00022304E0032302E0012300E000237A6A4F
:10197C0002F0030292009340FA681343FB603B4968
:10198C007B6A9B080233FA6841F823203B685B684A
:10199C0003F48033002B06D0384B1A683749BB69E7
:1019AC0013430B6006E0354B1A68BB69DB433349C4
:1019BC0013400B603B685B6803F40033002B06D0CC
:1019CC002E4B5A682D49BB6913434B6006E02B4BD9
:1019DC005A68BB69DB43294913404B603B685B6821
:1019EC0003F48013002B06D0244B9A682349BB695F
:1019FC0013438B6006E0214B9A68BB69DB431F499C
:101A0C0013408B603B685B6803F40013002B06D01B
:101A1C001A4BDA681949BB691343CB6006E0174BC4
:101A2C00DA68BB69DB4315491340CB607B6A013331
:101A3C007B623B681A687B6A22FA03F3002B7FF403
:101A4C00AFAE00BF00BF2C37BD4680BC704700BF97
:101A5C000000321000003110000022100000211094
:101A6C000000121000001110001002400000014094
:101A7C0000080140000C014000100140000401402E
:101A8C0080B485B000AF78600B467B807B689A6829
:101A9C007B881340002B02D00123FB7301E0002351
:101AAC00FB73FB7B18461437BD4680BC704780B473
:101ABC0083B000AF78600B467B8013467B707B78DD
:101ACC00002B03D07A887B681A6103E07B881A04A8
:101ADC007B681A6100BF0C37BD4680BC704780B470
:101AEC0085B000AF78600B467B807B68DB68FB6061
:101AFC007A88FB6813401A04FB68D9437B880B4037
:101B0C001A437B681A6100BF1437BD4680BC70470E
:101B1C0080B586B000AF78607B68002B01D10123C3
:101B2C006CE27B681B6803F00103002B00F08780DC
:101B3C00924B5B6803F00C03042B0CD08F4B5B684F
:101B4C0003F00C03082B12D18C4B5B6803F480332D
:101B5C00B3F5803F0BD1894B1B6803F40033002B8A
:101B6C006CD07B685B68002B68D1012346E27B68F4
:101B7C005B68B3F5803F06D1804B1B687F4A43F40A
:101B8C00803313602EE07B685B68002B0CD17B4BA1
:101B9C001B687A4A23F480331360784B1B68774AAE
:101BAC0023F4802313601DE07B685B68B3F5A02FE2
:101BBC000CD1724B1B68714A43F4802313606F4B3A
:101BCC001B686E4A43F4803313600BE06B4B1B684D
:101BDC006A4A23F480331360684B1B68674A23F40A
:101BEC00802313607B685B68002B13D0FFF7B6FC77
:101BFC00386108E0FFF7B2FC02463B69D31A642B4C
:101C0C0001D90323FAE15D4B1B6803F40033002B6D
:101C1C00F0D014E0FFF7A2FC386108E0FFF79EFC5F
:101C2C0002463B69D31A642B01D90323E6E1534BDB
:101C3C001B6803F40033002BF0D100E000BF7B687D
:101C4C001B6803F00203002B63D04C4B5B6803F062
:101C5C000C03002B0BD0494B5B6803F00C03082BD7
:101C6C001CD1464B5B6803F48033002B16D1434BDD
:101C7C001B6803F00203002B05D07B681B69012B4A
:101C8C0001D00123BAE13D4B1B6823F0F8027B68BD
:101C9C005B69DB00394913430B603AE07B681B69D5
:101CAC00002B20D0364B01221A60FFF757FC38610D
:101CBC0008E0FFF753FC02463B69D31A022B01D90B
:101CCC0003239BE12D4B1B6803F00203002BF0D088
:101CDC002A4B1B6823F0F8027B685B69DB00274901
:101CEC0013430B6015E0264B00221A60FFF736FCFD
:101CFC00386108E0FFF732FC02463B69D31A022B2D
:101D0C0001D903237AE11D4B1B6803F00203002B5E
:101D1C00F0D17B681B6803F00803002B3AD07B687A
:101D2C009B69002B19D0174B01221A60FFF716FC88
:101D3C00386108E0FFF712FC02463B69D31A022B0C
:101D4C0001D903235AE10D4B5B6A03F00203002B0C
:101D5C00F0D0012000F0A6FA1CE00A4B00221A6019
:101D6C00FFF7FCFB38610FE0FFF7F8FB02463B691D
:101D7C00D31A022B08D9032340E100BF0010024004
:101D8C0000004242800442429E4B5B6A03F0020315
:101D9C00002BE9D17B681B6803F00403002B00F0D7
:101DAC00A6800023FB75974BDB6903F08053002B57
:101DBC000DD1944BDB69934A43F08053D361914B23
:101DCC00DB6903F08053BB60BB680123FB758E4B52
:101DDC001B6803F48073002B18D18B4B1B688A4A49
:101DEC0043F480731360FFF7B9FB386108E0FFF729
:101DFC00B5FB02463B69D31A642B01D90323FDE0E2
:101E0C00814B1B6803F48073002BF0D07B68DB687C
:101E1C00012B06D17B4B1B6A7A4A43F001031362F8
:101E2C002DE07B68DB68002B0CD1764B1B6A754A66
:101E3C0023F001031362734B1B6A724A23F00403F1
:101E4C0013621CE07B68DB68052B0CD16D4B1B6AA5
:101E5C006C4A43F0040313626A4B1B6A694A43F0F1
:101E6C00010313620BE0674B1B6A664A23F0010304
:101E7C001362644B1B6A634A23F0040313627B688E
:101E8C00DB68002B15D0FFF769FB38610AE0FFF720
:101E9C0065FB02463B69D31A41F28832934201D961
:101EAC000323ABE0574B1B6A03F00203002BEED06D
:101EBC0014E0FFF753FB38610AE0FFF74FFB0246D3
:101ECC003B69D31A41F28832934201D9032395E03E
:101EDC004C4B1B6A03F00203002BEED1FB7D012B54
:101EEC0005D1484BDB69474A23F08053D3617B68AB
:101EFC00DB69002B00F08180424B5B6803F00C0324
:101F0C00082B61D07B68DB69022B46D13F4B00224A
:101F1C001A60FFF723FB386108E0FFF71FFB02464E
:101F2C003B69D31A022B01D9032367E0354B1B689D
:101F3C0003F00073002BF0D17B681B6AB3F5803F74
:101F4C0008D1304B5B6823F400327B689B682D49C9
:101F5C0013434B602B4B5B6823F474127B68196A38
:101F6C007B685B6A0B43274913434B60274B012269
:101F7C001A60FFF7F3FA386108E0FFF7EFFA024650
:101F8C003B69D31A022B01D9032337E01D4B1B6885
:101F9C0003F00073002BF0D02FE01C4B00221A60D2
:101FAC00FFF7DCFA386108E0FFF7D8FA02463B6924
:101FBC00D31A022B01D9032320E0124B1B6803F028
:101FCC000073002BF0D118E07B68DB69012B01D189
:101FDC00012313E00B4B5B68FB60FB6803F480325E
:101FEC007B681B6A9A4206D1FB6803F470127B680B
:101FFC005B6A9A4201D0012300E00023184618378F
:10200C00BD4680BD0010024000700040600042429E
:10201C0080B584B000AF786039607B68002B01D14B
:10202C000123D0E06A4B1B6803F007033A689A421D
:10203C0010D9674B1B6823F0070265493B681343B3
:10204C000B60634B1B6803F007033A689A4201D09C
:10205C000123B8E07B681B6803F00203002B20D03F
:10206C007B681B6803F00403002B05D0594B5B689D
:10207C00584A43F4E06353607B681B6803F0080321
:10208C00002B05D0534B5B68524A43F460535360AA
:10209C00504B5B6823F0F0027B689B684D491343FF
:1020AC004B607B681B6803F00103002B40D07B68FE
:1020BC005B68012B07D1474B1B6803F40033002BE3
:1020CC0015D101237FE07B685B68022B07D1414B64
:1020DC001B6803F00073002B09D1012373E03D4B07
:1020EC001B6803F00203002B01D101236BE0394B79
:1020FC005B6823F003027B685B68364913434B60D3
:10210C00FFF72CFAF8600AE0FFF728FA0246FB68A2
:10211C00D31A41F28832934201D9032353E02D4B59
:10212C005B6803F00C027B685B689B009A42EBD106
:10213C00274B1B6803F007033A689A4210D2244BD2
:10214C001B6823F0070222493B6813430B60204BAA
:10215C001B6803F007033A689A4201D0012332E06E
:10216C007B681B6803F00403002B08D0194B5B68D9
:10217C0023F4E0627B68DB68164913434B607B6891
:10218C001B6803F00803002B09D0124B5B6823F487
:10219C0060527B681B69DB000E4913434B6000F0F7
:1021AC0021F802460B4B5B681B0903F00F030A492D
:1021BC00CB5C22FA03F3094A1360094B1B681846DF
:1021CC00FFF78AF9002318461037BD4680BD00BFC3
:1021DC000020024000100240342B00089800002020
:1021EC009C00002090B48AB000AF2A4B3C1D0FCB52
:1021FC0084E80F0040F201233B800023FB610023A5
:10220C00BB6100237B6200237B6100233B62224B7A
:10221C005B68FB61FB6903F00C03042B02D0082BF9
:10222C0003D02DE01D4B3B622DE0FB699B0C03F0B2
:10223C000F0307F12802134413F8243C7B61FB695C
:10224C0003F48033002B13D0134B5B685B0C03F04F
:10225C00010307F12802134413F8283CBB617B6986
:10226C000E4A02FB03F2BB69B2FBF3F37B6204E0A0
:10227C007B690B4A02FB03F37B627B6A3B6202E0E5
:10228C00064B3B6200BF3B6A18462837BD4690BCE4
:10229C00704700BF242B00080010024000127A0087
:1022AC0000093D0080B485B000AF78600A4B1B6814
:1022BC000A4AA2FB03235B0A7A6802FB03F3FB6066
:1022CC0000BFFB685A1EFA60002BF9D100BF00BF9B
:1022DC001437BD4680BC704798000020D34D621067
:1022EC0080B582B000AF78607B68002B01D10123F0
:1022FC0041E07B6893F83D30DBB2002B06D17B6864
:10230C00002283F83C207868FFF74EF87B680222A5
:10231C0083F83D207B681A687B68043319461046A5
:10232C0000F06AFA7B68012283F846207B68012260
:10233C0083F83E207B68012283F83F207B680122D2
:10234C0083F840207B68012283F841207B680122BE
:10235C0083F842207B68012283F843207B680122AA
:10236C0083F844207B68012283F845207B68012296
:10237C0083F83D20002318460837BD4680BD000079
:10238C0080B485B000AF78607B6893F83D30DBB2E9
:10239C00012B01D0012335E07B68022283F83D201C
:1023AC007B681B68DA687B681B6842F00102DA60A4
:1023BC007B681B68164A934209D07B681B68B3F193
:1023CC00804F04D07B681B68124A934211D17B6802
:1023DC001B689B6803F00703FB60FB68062B10D09F
:1023EC007B681B681A687B681B6842F001021A60E4
:1023FC0007E07B681B681A687B681B6842F0010267
:10240C001A60002318461437BD4680BC704700BFC5
:10241C00002C01400004004080B582B000AF786011
:10242C007B681B681B6903F00203022B22D17B68BB
:10243C001B68DB6803F00203022B1BD17B681B6853
:10244C006FF002021A617B6801221A777B681B68A5
:10245C009B6903F00303002B03D0786800F0B1F9FB
:10246C0005E0786800F0A4F9786800F0B3F97B68AF
:10247C0000221A777B681B681B6903F00403042B8A
:10248C0022D17B681B68DB6803F00403042B1BD18F
:10249C007B681B686FF004021A617B6802221A7752
:1024AC007B681B689B6903F44073002B03D078682E
:1024BC0000F087F905E0786800F07AF9786800F0A8
:1024CC0089F97B6800221A777B681B681B6903F00B
:1024DC000803082B22D17B681B68DB6803F0080318
:1024EC00082B1BD17B681B686FF008021A617B6894
:1024FC0004221A777B681B68DB6903F00303002B4B
:10250C0003D0786800F05DF905E0786800F050F9C8
:10251C00786800F05FF97B6800221A777B681B688B
:10252C001B6903F01003102B22D17B681B68DB683E
:10253C0003F01003102B1BD17B681B686FF010028B
:10254C001A617B6808221A777B681B68DB6903F4C5
:10255C004073002B03D0786800F033F905E07868FD
:10256C0000F026F9786800F035F97B6800221A77BC
:10257C007B681B681B6903F00103012B0ED17B6880
:10258C001B68DB6803F00103012B07D17B681B6818
:10259C006FF001021A617868FEF74AFA7B681B68D3
:1025AC001B6903F08003802B0ED17B681B68DB68F2
:1025BC0003F08003802B07D17B681B686FF08002CF
:1025CC001A61786800F067FA7B681B681B6903F076
:1025DC004003402B0ED17B681B68DB6803F0400383
:1025EC00402B07D17B681B686FF040021A6178683A
:1025FC0000F0F9F87B681B681B6903F02003202BA3
:10260C000ED17B681B68DB6803F02003202B07D1FD
:10261C007B681B686FF020021A61786800F032FA50
:10262C0000BF0837BD4680BD80B584B000AF786070
:10263C0039607B6893F83C30012B01D10223B3E065
:10264C007B68012283F83C207B68022283F83D20C2
:10265C007B681B689B68FB60FB6823F07703FB605F
:10266C00FB6823F47F43FB607B681B68FA689A6005
:10267C003B681B68B3F5005F3ED0B3F5005F00F21A
:10268C008780B3F5805F00F08580B3F5805F7FD8DD
:10269C00702B1AD0702B7BD8602B50D0602B77D836
:1026AC00502B3CD0502B73D8402B58D0402B6FD88C
:1026BC00302B64D0302B6BD8202B60D0202B67D8DC
:1026CC00002B5CD0102B5AD062E07B6818683B68FA
:1026DC0099683B685A683B68DB6800F05CF97B687A
:1026EC001B689B68FB60FB6843F07703FB607B68AF
:1026FC001B68FA689A604EE07B6818683B689968BA
:10270C003B685A683B68DB6800F045F97B681B68DE
:10271C009A687B681B6842F480429A603BE07B6855
:10272C0018683B6859683B68DB681A4600F0BCF8CF
:10273C007B681B685021184600F013F92BE07B686E
:10274C0018683B6859683B68DB681A4600F0DAF891
:10275C007B681B686021184600F003F91BE07B685E
:10276C0018683B6859683B68DB681A4600F09CF8AF
:10277C007B681B684021184600F0F3F80BE07B687F
:10278C001A683B681B681946104600F0EAF802E02C
:10279C0000BF00E000BF7B68012283F83D207B680E
:1027AC00002283F83C20002318461037BD4680BD1C
:1027BC0080B483B000AF786000BF0C37BD4680BCDE
:1027CC00704780B483B000AF786000BF0C37BD4653
:1027DC0080BC704780B483B000AF786000BF0C370A
:1027EC00BD4680BC704780B483B000AF786000BF3A
:1027FC000C37BD4680BC704780B485B000AF7860A4
:10280C0039607B681B68FB607B68254A934207D064
:10281C007B68B3F1804F03D07B68224A934208D186
:10282C00FB6823F07003FB603B685B68FA6813433A
:10283C00FB607B681A4A934207D07B68B3F1804FE8
:10284C0003D07B68174A934208D1FB6823F440738A
:10285C00FB603B68DB68FA681343FB60FB6823F0A2
:10286C0080023B685B691343FB607B68FA681A6003
:10287C003B689A687B68DA623B681A687B689A6284
:10288C007B68074A934203D13B681A697B681A63D9
:10289C007B6801225A6100BF1437BD4680BC70476B
:1028AC00002C01400004004080B487B000AFF860F9
:1028BC00B9607A60FB681B6A7B61FB681B6A23F05A
:1028CC000102FB681A62FB689B693B613B6923F060
:1028DC00F0033B617B681B013A6913433B617B69E5
:1028EC0023F00A037B617A69BB6813437B61FB6845
:1028FC003A699A61FB687A691A6200BF1C37BD4657
:10290C0080BC704780B487B000AFF860B9607A6063
:10291C00FB681B6A23F01002FB681A62FB689B6958
:10292C007B61FB681B6A3B617B6923F470437B61B1
:10293C007B681B037A6913437B613B6923F0A0031B
:10294C003B61BB681B013A6913433B61FB687A69C5
:10295C009A61FB683A691A6200BF1C37BD4680BC9D
:10296C00704780B485B000AF786039607B689B6835
:10297C00FB60FB6823F07003FB603A68FB68134351
:10298C0043F00703FB607B68FA689A6000BF14375A
:10299C00BD4680BC704780B487B000AFF860B960AA
:1029AC007A603B60FB689B687B617B6923F47F43A7
:1029BC007B613B681A027B681A43BB6813437A69D4
:1029CC0013437B61FB687A699A6000BF1C37BD4674
:1029DC0080BC704780B485B000AF786039607B688C
:1029EC0093F83C30012B01D1022341E07B6801229A
:1029FC0083F83C207B68022283F83D207B681B68AF
:102A0C005B68FB607B681B689B68BB60FB6823F0A2
:102A1C007003FB603B681B68FA681343FB607B68C0
:102A2C001B68FA685A607B681B68144A934209D089
:102A3C007B681B68B3F1804F04D07B681B68104A1D
:102A4C0093420CD1BB6823F08003BB603B685B688E
:102A5C00BA681343BB607B681B68BA689A607B6872
:102A6C00012283F83D207B68002283F83C20002360
:102A7C0018461437BD4680BC704700BF002C01407F
:102A8C000004004080B483B000AF786000BF0C3706
:102A9C00BD4680BC704780B483B000AF786000BF87
:102AAC000C37BD4680BC704770B500260C4D0D4CE4
:102ABC00641BA410A64209D100F022F800260A4D8E
:102ACC000A4C641BA410A64205D170BD55F8043BFA
:102ADC0098470136EEE755F8043B98470136F2E784
:102AEC00442B0008442B0008442B0008482B0008FA
:102AFC0003460244934200D1704703F8011BF9E7E7
:102B0C00F8B500BFF8BC08BC9E467047F8B500BFCE
:082B1C00F8BC08BC9E4670479E
:102B240002030405060708090A0B0C0D0E0F10100A
:102B34000000000000000000010203040607080969
:042B44003101000853
:042B48000D01000873
:102B4C000008014000080140000801400004000892
:102B5C000010000001000000010000000100000056
:102B6C000100000001000000010000000100000055
:102B7C000100000001000000010000000100000045
:102B8C000100000001000000010000000100000035
:102B9C0064000000640000006400000014000000E9
:102BAC0014000000140000000100000007000000E9
:102BBC0005000000020000000700000005000000F6
:102BCC0002000000010000000200000003000000F1
:102BDC0004000000010000000024F40010000000BC
:042BEC0001000000E4
:040000050800146D6E
:00000001FF
